:020000040000FA
:030000000200E11A
:030033000206E9D9
:030043000204D4E0
:03004B0002052E7D
:03006B0002078603
:100083000204DD00000080FB1200F0B9000302004F
:10009300DBE479127807B800028004F709D8FCE49E
:1000A30090F10078B279098002F0A3D8FCD9FA90D4
:1000B300F9B1AA82AB839000F3781E79018015E42D
:1000C30093A3AC82AD838A828B83F0A3AA82AB8392
:1000D3008C828D83D8E9D9E71212E612008675D097
:1000E300007581BF7510007511F102008B79012233
:1000F30001001404104A624E5E08520C5A001400A8
:10010300011001D501D501D501D50100001201105F
:1001130001000000205104A516000101020001099D
:10012300026D0002010080FA0904000000010100D1
:10013300000924010001270001010C24020101022E
:100143000001010000000924060201010300000967
:10015300240304010100020009040100000102005C
:100163000009040101010102000007240104010147
:10017300000B2402010102100180BB000905840D5C
:1001830064000100000725010000000004030904C6
:1001930024035400650078006100730020004900C7
:1001A3006E0073007400720075006D0065006E00D0
:1001B300740073001E0355005300420020004300E7
:1001C3004300320035003100310020004D0049006A
:1001D30043002B0100005B01000064011000BB0120
:1001E30002E722C082C08389828A83BB0003E08046
:1001F30002E493D083D08222BB000EC082C0838AE4
:10020300838982F0D083D08222BB0101F722CAC046
:10021300E0E6F0A308DAFAD0E0FA22CAC0E0E0A3ED
:10022300C582CCC582C583CDC583F0A3C582CCC5A9
:1002330082C583CDC583DAE6D0E0CA22600C08C646
:10024300C313C618C613C6D5E0F422700422600D8A
:1002530018C6C333C608C633C6D5E0F41822251022
:1002630010AF08F510400215118008F51040021573
:1002730011D2AF22C0D0251010AF08F510500205DF
:10028300118008F51050020511D2AFD0D0222510ED
:10029300F58210AF08F510400215118008F51040E3
:1002A300021511D2AF851183222510F582E4351191
:1002B300F58322E4732510C582C0E0E51134FFC540
:1002C30083C0E0E510C3958224F9F8E4C5A88583CB
:1002D30011858210C5A8E8CEF0A3E520F0A3780825
:1002E300E608F0A3DEFAEFF0A3E58124FBF8E608C5
:1002F300F0A3E608F0A30808E608F0A3E608F0A3D5
:1003030015811581D0E0FED0E0F815811581E8C094
:10031300E0EEC0E022851183851082E0A3FEE0A316
:10032300F5207808E0A3F608DFFAE0A3FFE0A3C016
:10033300E0E0A3C0E0E0A3C0E0E0A3C0E0E4C5A820
:10034300858210858311C5A8D083D08222C0D02591
:1003530010C582C0E0E51134FFC583C0E0E510C3DA
:10036300958224F310AF0885831185821080088558
:100373008311858210D2AFC8F0A3E9F0A3EAF0A3FA
:10038300EBF0A37908E709F0A3D8FAECF0A3EDF0BA
:10039300A3EEF0A3EFF0A3D0E0F0A3D0E0F0A3D05E
:1003A300E0F0A3E520F0A3E5F0F0A3228511838517
:1003B3001082E0C0E0A3E0F9A3E0FAA3E0FBA37896
:1003C30008E0F608A3DFFAE0FCA3E0FDA3E0FEA348
:1003D300E0FFA3E0C0E0A3E0C0E0A3E0F5D0A3E02A
:1003E300F520A3E0A3F5F0E4C5A885831185821069
:1003F300C5A8D082D083D0E0F8D0E0327403800265
:100403007401C0E0F404120291D0E01202112274CC
:10041300038000CCC0E0EDC0E0E510C39CCCAD117F
:1004230050011D10AF068C108D1180068C108D119C
:10043300D2AF12021ED0E0FDD0E0FC22D083D082E6
:10044300C5F0E493A3C5F0C395F0F5F0E493A3C31B
:1004530095F04005E5F0048001E475F002A42582DF
:10046300F582E5F03583F583E493A3C0E0E493C01C
:10047300E022D083D082CCC0E0E493A360061204D0
:100483009F1470FAE493A360061204BE1470FAD0AA
:10049300E0FCE493A3C0E0E493C0E022C0E0E49373
:1004A300A3D39C5010E493A3C39C400AD0E0D0E0B4
:1004B300D0E0020492A3A3A3D0E022C0E0E493A37C
:1004C3006C7009D0E0D0E0D0E0020492A3A3D0E0A6
:1004D30022C2AFC2C0C2C0D2AF32C0E0C0D0EAC0F5
:1004E300E0C082C083C2AF539BFCE59BE5E9FAE51C
:1004F300915AFAF4F5E9EAA2E05014740190F12854
:10050300F0748090F9A5F0E490F129F05391FEEA9C
:10051300A2E45009744090F9A5F05391EFD2AFD003
:1005230083D082D0E0FAD0D0D0E032C0E063900232
:10053300E590D0E032C082C08374AA90DF0BF074E0
:100543009A90DF0AF0742590DF09F0E490DF03F05E
:10055300744590DF04F074FF90DF02F0741D90DFA8
:100563000CF0749A90DF0DF0740C90DF07F0E490B8
:10057300DF08F0741390DF0EF0742390DF0FF07434
:100583005590DF10F0746690DF11F0740790DF125E
:10059300F0743090DF13F0740890DF14F0741D9042
:1005A300DF15F0741C90DF16F074C790DF17F0E4CA
:1005B30090DF18F074B090DF19F074B690DF1AF082
:1005C300741090DF1BF074EA90DF1CF0742A90DF44
:1005D3001DF0E490DF1EF0741F90DF1FF07488900D
:1005E300DF23F0743190DF24F0740990DF25F07479
:1005F300C090DF2EF075E10490DF3BE0640170F8FA
:1006030002085A74F71202B8E9FE74091202ACE048
:10061300FFD28575E1041217195014750801750985
:1006230000ED780812024EE508541F4480F5D60009
:1006330000000000000000750801750900ED78084E
:1006430012024EE508541FF5D6000000000000001A
:10065300E490F1ECF075E10278018007E8240108E9
:10066300E93400F9C3EC98E499A2D265D033404F42
:1006730053CBEF8ECD43CB10E5CA60E090DF3CE077
:10068300A2E35008740190F1ECF0800890F1ECE0E3
:10069300640170E490DF3BE0640170DC8A828B8349
:1006A300E06F60047408800E90DF3CE0A2E7400432
:1006B30074028002740190F129F053CBEF80067429
:1006C3000490F129F0C285020C65748055C6FA5373
:1006D300BEFB53C6BFE5C6A2E640FA8AC6E5C66AB4
:1006E30070FB43BE0422C0E074F1120350D2A0E5B4
:1006F300BEA2E650FA90DE06E0FAA2E25035A81553
:10070300E890DE0BF0F508851609740478081202E8
:100713003FE50890DE07F08515088516097409780A
:100723000812023FE508543E90DE09F090DE01E036
:10073300D2E0F07812EA46F690DE021216D974047B
:10074300780812024E7812E50846F608E50946F6DF
:1007530090DE041216D97409780812024E78120832
:10076300E50946F6EAA2E0500375140174065A60DF
:1007730003751400121A05758B00C2E8C2A07F022C
:100783000203AFC0E074F2120350E5BEA2E650FAD2
:10079300E589A2E75005C2BD12085F758900C2C58D
:1007A3007F010203AFC082C083C29190F1FDE0706C
:1007B30002A3E0600990F1FD1208431202B67453DC
:1007C30090F1EDF074BE90F1EEF074FC90F1EFF067
:1007D300744390F1F0F074BE90F1F1F0740190F174
:1007E300F2F0747590F1F3F0748790F1F4F0740102
:1007F30090F1F5F074E590F1F6F0741490F1F7F0E0
:10080300747090F1F8F074F390F1F9F0742290F1B0
:10081300FAF0758900C2C5D2BD90F1FB74EDF0A367
:1008230074F1F07582EDF5831202B690F1FFE0707A
:1008330002A3E0600990F1FF1208431202B6801789
:1008430012084722E0F8A3E0F583888222C082C021
:1008530083740490F207F0D083D08222C082C083D5
:10086300E490F1F2F090F1F3F090F1F4F090F1F5FF
:1008730080E4C082C083E9FCEAFD7A007B00800744
:1008830090F202E012090090F20112102690F9C4CE
:10089300E0687003A3E069601C1208BA6C700D90E5
:1008A300F201E0FAA3E0FB12090080091208BA6D15
:1008B30070CEED60CB80A090F202E0F5838882A336
:1008C300E4932274F71202B8E9FEEAFF90F9C2E05A
:1008D300F8A3E0120911800E8A828B83A3A3A3A33A
:1008E300A3E4936E60147A007902120875EA70012A
:1008F300EB6007EE70E2EF1F70EC020C65F5838886
:1009030082E493F890F201E028F8A3E03400F99030
:10091300F201E8F0A3E9F02274F51202B890DE0EBA
:10092300E0F50BE4F090DE11E0FFA2E4501F7480C9
:10093300F0740790F207F0E5177002E51860098577
:1009430017828518831202B6E490F207F0EFA2E251
:10095300500CE490DE11F090F207F00209E190F2FE
:1009630007E06402706190DE16E0FE90F214120458
:1009730012EEF97A207BDE120C6A74031202778E70
:100983000890F217120C0E120C02120C19E07002EE
:10099300A3E0600474408002744890DE11F090F28A
:1009A30017E07002A3E07016E5177002E5186009FE
:1009B3008517828518831202B6E490F207F0E50BDF
:1009C30090DE0EF0021021E064067009851782851F
:1009D30018831202B690F207E06003020B14EFA231
:1009E300E050DB7508197509F2750A0078081203DF
:1009F300FF79087A207BDE120C6A74031202777582
:100A0300170075180090F219E054E01204750006FF
:100A130000270A20950B40830B80B70AA0A10BC0C7
:100A23008C0B9B0A90F21AE0120475000501A30ACD
:100A330003930A05410A09AD0A0BB20A9B0A90F215
:100A43001DE07002A3E0705090F21FE07002A3E07B
:100A5300704690F21BE05480F8A3E0F9E87001E9D6
:100A6300703690F21BE090DE00F090F2036018E025
:100A7300640270037403F090F207E06404600302FD
:100A83000B0E7460020B10E0640370EB740280E6DB
:100A93007901120D92E970DF740490F207F080E29D
:100AA3007900120D92E970CF80EE1211BE80C81248
:100AB300126880C390F21AE0120475000400CE0A93
:100AC30006D30A08D80A0A370B9B0A120CA480A77C
:100AD300120E4A80A290F21BE07002A3E070B9905C
:100AE300F21DE07002A3E070AF90F21FE0640170AA
:100AF30002A3E070A390F2147404F0A374F2121929
:100B0300F5F0A3E4F0740190F207F0744090DE1165
:100B1300F090F207E064016003020BEE7F0290F2B3
:100B230017C3E09420A3E09400507F90F217E0FEF7
:100B33007F0A807890F203E064046003020A9B90CA
:100B4300F219E064816003020A9B90F21BE07002D9
:100B5300A3E06003020A9B90F21FE064017002A30A
:100B6300E06003020A9B90F21DE02405F508A3E070
:100B730034F2F50990F214E508F0A3E509020B013C
:100B83007517FF751819020A9B75170275181A0253
:100B93000A9B75171F75181812181F020A7A751702
:100BA3009D75181812189D020A7A7E208E0A120C5F
:100BB30002E50A60151201E190DE20F0E924010943
:100BC300EA3400FA150AE50A70EB8E0890F214E095
:100BD300F9A3E0FA120C19120C0EEF90DE11F0EEED
:100BE300C3942040030209C10209ABE0640560031A
:100BF3000209C18517828518831202B60209C190C2
:100C0300F214E0F9A3E0FAA3E0FB22C3E09508F0B5
:100C1300A3E09400F022E92508F9EA3400FA90F2FF
:100C230014E9F0A3EAF0A3EBF090F2172274F712A1
:100C330002B87A008A08E5082408F582E434F2F55C
:100C430083E9F00AEAC3940540EA7A008A08E508D2
:100C5300240DF582E434F2F583E9F00AEAC394053E
:100C630040EA7F0202031874F61202B8EAFCEBFDB5
:100C7300E9FE740A1202ACE0F508A3E0F509A3E06B
:100C8300A908AA09FBEE60148C828D83E01201FB94
:100C9300E9240109EA3400FA1EEE70EC7F03020333
:100CA3001874F71202B890F21BE07002A3E07017F9
:100CB30090F21EE0F9E47001E9700C90F21FE06419
:100CC300027002A3E060047404805590F219E012EC
:100CD300043F8002CA0CDF0C2A0D3A0D90F21DE08E
:100CE30070E590F213E0600478018002780090F2DE
:100CF30021E8F0A3E4F090F212E0600A90F221E020
:100D03004402F0A3E4F090F207E06404601690F26A
:100D1300147421F0A374F2121893F0A3E4F0740195
:100D230090F207F0020C6590F203E064047098906F
:100D3300F221E4F0A380CE90F21DE0547FF50890F9
:100D4300F203E064047080E508C394064003020CD8
:100D5300CA90F21DE054806016120D88F583E0649A
:100D630003700478018002780090F221E8809312E6
:100D73000D7EF583E0640370EE80E8E508240CF54E
:100D830082E434F222E5082407F582E434F2227483
:100D9300F71202B8E9FA90F21FE07002A3E07012B2
:100DA30090F203E06404601590F21DE07002A3E08A
:100DB300600B740490F207F07901020C6590F2194C
:100DC300E0541F12043F0002B50DD30DDB0DE50DFA
:100DD30090F21BE064016004790080DEEA90F21275
:100DE30080D590F21DE0547FF50890F21BE070E887
:100DF300E508C3940650BBE50890DE0EF090F21DA3
:100E0300E05480601CEA600474108002744090DE39
:100E130011F0EA600474038001E4C0E0120D8880DD
:100E23001AEA600474208002748090DE14F0EA6091
:100E33000474038001E4C0E0120D7EF583D0E0F07A
:100E4300E490DE0E020DBA74F51202B890F21CE0C3
:100E530012043F0102D20E600E810EB60E90F9C24B
:100E6300E0F8A3E01209117A007901120875121053
:100E7300411201E190F217F0A3E4F0020FDF90F2C8
:100E83001BE0FA79001208C6121041E9240209098D
:100E9300EA3400FA1201E1FC1919E0FAE924030922
:100EA3000909EA3400FA1201E1F9EC90F217F0A310
:100EB300E980C790F21BE0FE90F9C2E0F8A3E012CC
:100EC30009117A007903120875EE1E70F5809F9060
:100ED300F214E4F0A3F0A3F0FA020FB3750900745F
:100EE30003780812024E90F9C6E02508FBA3E0350B
:100EF300098B82F583E493C0E090F21CE0F8D0E024
:100F0300686003020FB28A08750900740378081237
:100F1300024E121031E493C0E090F21BE0F8D0E0EF
:100F2300686003020FB28A08750900740378081217
:100F3300024E12102CE493C0E090F21EE0F8D0E0D1
:100F430068706C8A087509007403780812024E12DF
:100F5300102CA3E493C0E090F21DE0F8D0E0687099
:100F63004E8A087509007403780812024E90F9C678
:100F7300E02508F8A3E03509F988828983A3A3A3B0
:100F8300A3E493F508740193F50990F214E508F0CE
:100F9300A3E509F0A37480F088828983A3A3A3A3A4
:100FA300A3A3E493F8740193F990F2171209150AB5
:100FB3008A0890F9C61210267583F97582C8E0C3B2
:100FC30098F50AA3E099F50B7403780A12023FC35C
:100FD300E508950AE4950B5003020EDF90F214E046
:100FE300FCA3E0FDA3E0FEEC4D4E70047404802AE4
:100FF30090F207E06404602690F2171210267583BE
:10100300F275821FC3E098A3E099500C90F21F126F
:10101300102690F217120915740190F207F07F045D
:10102300020318E0F8A3E0F922121031A32290F989
:10103300C6E02508A3E035098B82F583A32290F24D
:1010430014EAF0A3EBF0A374801219F0E0F9A3E023
:10105300FA7B802274F21202B874FE1202618510C8
:1010630082851183EAF0A3EBF012119F602B90F9B4
:10107300CAE0FEA3E08007EE2404FEEF3400FF8EF7
:10108300828F83E493F8740193F985108285118329
:10109300E0687003A3E06970DE750E008049749008
:1010A30090DE14F074101211AF7003750B407508C5
:1010B30001750900E50A780812024E8E828F83A318
:1010C300A3A39355086006E50BD2E0F50BE50B905F
:1010D300DE15F0EA90DE13F0E50A120D80F583E4E5
:1010E300F090DE0EF0050E12119FFAE50EC39A4042
:1010F300030211957A0079051208758A088B09ACE9
:1011030008AD09EC7001ED60DCEC2402F50CED3464
:1011130000F50D850C82F583E493540FF50A90DEF8
:101123000EF0750B008C828D83A3A3A3A3E49324F9
:1011330007F508A3E4933400F50974037808120251
:101143003FAA08850C82850D8393A2E74003021012
:10115300A1744890DE11F074081211AF7003750B7F
:1011630040750801750900E50A780812024E8E825F
:101173008F83A3A39355086006E50BD2E0F50BE537
:101183000B90DE12F0EA90DE10F0E50A120D8A02EF
:1011930010E074021202777F07020318851082851C
:1011A3001183120847A3A3A3A3E49322F08C828D97
:1011B30083A3A3A3E493540364012274F61202B835
:1011C30090F203E06402601F90F21DE07002A3E05E
:1011D300701590F21FE07002A3E0700B90F21CE018
:1011E300F9E47001E96008740490F207F0807390E9
:1011F300F21BE0605F7A00F91208C68A088B09AE19
:1012030008AF09EE7001EF60DE740490F203F09012
:10121300F21BE090F204F0750A008E828F83A3A381
:10122300A3A3E493FAE50AC39A5037850A08E508AD
:101233002405F582E434F2F583E4F07A00790412AC
:1012430008758A828B83A3A3A3E49370EE121057CD
:10125300050A80C690F204F0740390F203F0F912C9
:101263000C30020C9F74F71202B890F203E064048E
:10127300701290F219E06401700A90F21FE070029C
:10128300A3E06008740490F207F0805490F21BE02E
:10129300FE90F21DE0FF7A0090F204E0F91208C616
:1012A3007A027904120875EA7001EB60D78A828B9F
:1012B30083A3A3E4936F70E88A828B83A3A3A3E43D
:1012C300936E70DC90F21BE0C0E090F21DE0240509
:1012D300F8A3E034F2F988828983D0E0F012105742
:1012E300020C651206CD75F30043FD3FE5FD7580E5
:1012F3000075F40043FE0BE5FED29075F50075FF13
:101303000175A00075E40E75E54075DA1B75DBB752
:1013130075CC0075CE0075CBE574F1F5D575D400A9
:1013230074F1F5D375D20874DE90F102F07428904D
:10133300F103F090F107E054CFF0E490F104F0747E
:101343006090F105F0742090F106F090F107E054FD
:10135300F4F074F290F11AF0742490F11BF074C05D
:1013630090F11DF0E490F11CF090F11FE054C044A3
:1013730010F0742090F11EF074F290F120F074E4F8
:1013830090F121F090F124E054E0F074C090F12545
:10139300F0E490F124F0745090F127F0742090F170
:1013A30026F0E490F9A5F075E900759100539BFCD4
:1013B300E59B120538740690DF31F074DF90F10875
:1013C300F074D990F109F074F190F10AF0742A9055
:1013D300F10BF090F10CE054E0F074C290F10DF0D9
:1013E300E490F10CF0741990F10FF0741390F10E76
:1013F300F075D682759C00759D06759E0112173394
:10140300E490F9A7F080111216FFE5D6A2E340FAA3
:1014130090DF3BE0640170F812179B90F9B1E07024
:10142300030214B1D2B990DF1CE0D2E5800F12178A
:101433009B90F9A7E004F0C394034002E4F075E144
:101443000490DF3BE0640170F81216CE12024EE501
:101453000824B2F582E50934F9F583E090DF06F05C
:1014630075E10190DF3BE0640170F87508C178080D
:101473001204037D017C1A79BC7A2A7BF1120606D9
:10148300740112027790F129E0640170A1E490F9EC
:10149300A4F0740190F9A6F0E490F9B1F0759CC33F
:1014A30090DF1CE054CFF0C2B9D29102163CE59C08
:1014B300C394BA50F95380F5E58012171950037598
:1014C300D682000000000000000075D60200000074
:1014D30000000000D28475E10290DF3CE0A2E350FB
:1014E3000A740890F9A5F0D2808013E59CC3945246
:1014F30050E7740490F9A5F075E10475D682C284AF
:101503007E007F007C007D00EC2424F8ED34F2F9AA
:1015130088828983E0F508EE24E4FAEF34F2FB8A4B
:10152300828B83A3A3A3A3A3E5081216E21216E0FA
:10153300F088828983A3E08A828B83A3A31216E0B7
:10154300A3F08A828B83F0EE2406FEEF3400FFECD7
:1015530024020C0CED3400FDC3EC94C0ED9400A206
:10156300D265D03340A2C2AF74F290F120F074E49C
:101573001216F4700A74F590F122F0742480087442
:10158300F790F122F074641216E9E5D6A2E440FA6A
:1015930074F390F120F074A41216F4700A74F590A9
:1015A300F122F074E4800874F890F122F0742412AC
:1015B30016E9E5D6A2E440FA74F490F120F07464DD
:1015C3001216F4700A74F690F122F074A480087471
:1015D300F890F122F074E41216E9E5D6A2E440FA99
:1015E300D2AF8010E59C700C75E10475D68274024D
:1015F30090F9A5F090F9A5E06408700890DF3BE04E
:10160300640170E0C28090F9A5E064046005E064C1
:10161300027011D283740490F129F0E59CC39408FD
:10162300401480F790DF3CE0A2E74004740280029C
:10163300740190F129F0759CC3C28475E10490F99B
:10164300A6E0FA1216CE12024EE50824B2F8E50916
:1016530034F9F9EA28F582E439F583E090DF06F0FE
:1016630090F9A6E0045403F075E10190F129E064D8
:101673000470221216FFE5D6A2E340FA90F9A4E023
:1016830004F0C394055003021413E4F0740190F9B9
:10169300B1F0021413E490F9A4F090F129E064018D
:1016A300600302140A74F190F118F0742C90F1198C
:1016B300F090F11FE0543F4440F043D60843D7086D
:1016C300E5D6A2E3400302141380F590F9A712169E
:1016D300D97402780822E0F50875090022A3A3F063
:1016E3008A828B83A32290F123F043D61043D71031
:1016F3002290F121F090F223E064012274F990F139
:1017030018F074AC90F119F090F11FE0543FF043DE
:10171300D60843D70822742090F9A5F07591007577
:10172300E900539BFCE59BC2C0C289E5D6A2E12236
:10173300C082C0837A0079011208C68A828B83A390
:10174300A3A3A3A3A3A3E493A2E65004740180017B
:10175300E490F213F0E490F212F043BE80D2BDF5B0
:1017630012F513F5147515FF7516FF74FF90DE0B54
:10177300F090DE07F0743E90DE09F0438C1075891B
:1017830000C2C5758B00C2E8439A0253F4FED2909F
:1017930043FE01D2AF02085AC082C083A812E854A4
:1017A300046026751200751300740290F203F0E4CE
:1017B30090F204F090F207F07903120C30751700E1
:1017C300751800748190DE01F0A812E854106009C6
:1017D300781274EF56F612091BA812E8A2E0500F14
:1017E300781274FE56F61207A8781274FD56F69016
:1017F300DE0EE0FB7404F090DE11E0A2E250167AF4
:1018030060E490DE28F01AEA70F790DE11E0D2E08F
:10181300F0E0C2E2F0EB90DE0E020859C082C08312
:1018230090F21AE06401705F90F207E0705F90F24B
:101833001CE0F9E47003740169702290F21DE070FA
:1018430004A3E06402701690F21FE064017002A327
:10185300E0700A74021219DEF0A3E4802FE470032F
:10186300740269702290F21DE07004A3E0640270B8
:101873001690F21FE064027002A3E0700A74021271
:1018830019D412189380D1740490F207F002085A05
:10189300F0A3E4F090F217740222C082C08390F2A6
:1018A3001AE012043F8103CB19B41820195F19956C
:1018B3001990F207E060030219D190F21CE0F9E4F9
:1018C3007003740169702390F21DE07004A3E06457
:1018D30002701790F21FE064017002A3E0700B74B2
:1018E300011219DEF0A3E40219D0E4700374026953
:1018F30060030219CB90F21DE07004A3E064026060
:10190300030219CB90F21FE064027002A3E06003AC
:101913000219CB74011219D412189380C790F207DD
:10192300E060030219D190F21CE0F9E47003740241
:101933006960030219CB90F21DE07004A3E0640216
:1019430060030219CB90F21FE064027002A3E070FF
:10195300771219EB74AFF0A374F980BC90F207E02F
:10196300706C90F21CE0F9E4700374026970599092
:10197300F21DE07004A3E06402704D90F21FE06476
:10198300027002A3E070411219EB74BEF0A374F964
:10199300808690F207E0703690F21CE0F9E4700361
:1019A300740269702390F21DE07004A3E064027076
:1019B3001790F21FE064027002A3E0700B1219EBA0
:1019C30074C0F0A374F98092740490F207F00208D3
:1019D3005A1219ED74A9F0A374F9221219ED74A81F
:1019E300F0A374F91219F522740190F207F090F242
:1019F3001422F0A3E4F090F21774012202085002BB
:101A03000850C082C083D282A812E85408603A907A
:101A1300DE0EE090F9ABF090F9ADE0601F74F99041
:101A2300F100F074AC90F101F090F107E0543FF055
:101A330043D60143D701E5D6A2E040FA740190F9F9
:101A4300ADF0781274F7121B48781208E65401FBC4
:101A5300E47001EB7003021B4590DE0EE090F9ABDE
:101A6300F0740490DE0EF090F9AEE012043F00052E
:101A7300071B811A9B1AB51AC91AD71AEB1A90F2C7
:101A830023E0700A74F590F100F07424807274F707
:101A930090F100F07464806890F223E0700A74F5AA
:101AA30090F100F07484805874F790F100F074C4DE
:101AB300804E90F223E0700A74F590F100F074E424
:101AC300803E74F880C090F223E0700474F6802A9C
:101AD30074F880CC90F223E0700A74F690F100F071
:101AE30074A4801C74F880D290F223E0700A74F717
:101AF30090F100F07404800874F990F100F07444DC
:101B030090F101F090F107E0543F4440F043D601D7
:101B130043D701E5D6A2E040FA90F9AEE004F0C362
:101B23009406401290F223E004F0E0A2E0E492E095
:101B3300F0E490F9AEF0180874FE121B48E490F933
:101B4300ADF002085A56F690DE11E0D2E0F090F9BB
:071B5300ABE090DE0EF02272
:04000005000000E116
:00000001FF
